:020000021000EC
:1090000000000120B1920100D992010069330200F1
:109010008133020099330200B133020000000000E6
:10902000000000000000000000000000E3920100CA
:10903000C933020000000000E7920100E99201003C
:10904000CDC00100EB92010071BF0100E5C4010039
:10905000EB920100493A030095C3010055E8010075
:10906000EB92010075BA0100EB920100EB92010056
:10907000EB920100EB920100EB920100EB920100F8
:1090800029C80100A5A80100EB920100EB920100A4
:10909000EB920100EB92010055E50100EB9201001B
:1090A000EB920100EB92010089BA0100093803003C
:1090B000EB920100EB9201000000000000000000B4
:1090C000EB920100EB920100EB920100EB920100A8
:1090D000EB920100EB920100EB9201000000000016
:1090E0000000000000000000000000000000000080
:1090F0000000000000000000000000000000000070
:10910000000000000000000000000000000000005F
:10911000000000000000000000000000000000004F
:10912000000000000000000000000000000000003F
:10913000000000000000000000000000000000002F
:10914000000000000000000000000000000000001F
:10915000000000000000000000000000000000000F
:1091600000000000000000000000000000000000FF
:1091700000000000000000000000000000000000EF
:1091800000000000000000000000000000000000DF
:1091900000000000000000000000000000000000CF
:1091A00000000000000000000000000000000000BF
:1091B00000000000000000000000000000000000AF
:1091C000000000000000000000000000000000009F
:1091D000000000000000000000000000000000008F
:1091E000000000000000000000000000000000007F
:1091F000000000000000000000000000000000006F
:1092000010B5054C237833B9044B13B10448AFF3C0
:1092100000800123237010BDC03B0020000000002F
:10922000F02B070008B5034B1BB103490348AFF30C
:10923000008008BD00000000C43B0020F02B0700A8
:10924000A3F5803A704700BF154B002B08BF114BA8
:109250009D46FFF7F5FF00218B460F461148124A45
:10926000121A25F0F3FA0C4B002B00D098470B4B49
:10927000002B00D098470020002104000D000B486F
:1092800024F0C7FD25F0CAFB2000290008F076FF76
:1092900024F0E2FD000008000000000000000000D3
:1092A00000000120C03B0020A0CF002065EA0300A1
:1092B0000649074A074B9B1A03DD043BC858D050A8
:1092C000FBDC02F00FF8FFF7BFFF0000CC2D07001A
:1092D00000360020C03B0020FEE7FEE7FEE7FEE789
:1092E000FEE7FEE7FEE7FEE7FEE7FEE77047000069
:1092F00007B5044B0093044A402300F034F803B050
:109300005DF804FB0D930100DC3B00202DE9F843E0
:1093100088461446B2B1104B104D0326002743F087
:109320000109224608EB0701002003F083FE0744F1
:10933000241A60B92B782BB14FF47A40C847013E0C
:1093400002D12E70BDE8F88301232B70E9E70123D9
:109350002B70002CE5D1F5E7401104001C3C0020E7
:10936000704703F093BEF0B595B01D46164608460B
:109370000C4601F0A0FE1A9B0D93CDE9086500256F
:109380002B46082205A920460A958DF82C500C95ED
:1093900001F0ADFE079B0293069B03939DF81430EA
:1093A0008DF8115003F00302012A1DD1BDF81420DD
:1093B000059DC3F3C203C2F383168DF81030B200CB
:1093C00008230EA9204601F092FEC5F3952508ABAF
:1093D0000093324602AB0EA9284600F0D7FB204688
:1093E00001F06DFE15B0F0BD022AF8D1BDF816509F
:1093F000C3F3C203C5F389158DF810300827082D73
:109400002E4628BF08263B4632460EA9204601F0CC
:109410006EFEAD1B08AB02AA31460EA8374400F021
:1094200019FC002DEBD1DAE708B5FFF79AFF0448E5
:10943000042100F013FB034B01225A7108BD00BF49
:10944000B42D070000360020037813F0040215D075
:1094500003F00303012B03D0022B09D00120704736
:109460000B6802880233C2F3831213440B60F5E7E2
:109470000B684288023303EB9213F7E710467047FC
:109480002DE9F04F434C87B0884600230546871CE2
:109490000DF1070016468DF8073001F087F8626875
:1094A000C8F80020A36803F580739B1A04F21C48D7
:1094B00004F5836A04F21449BB4218D30021002E3C
:1094C00064D005F00F05AD0145F0050565F30F010A
:1094D00063689DF80700DAB203323B4444F8221077
:1094E000636001F087F8012007B0BDE8F08F01212B
:1094F000404601F0C0FA504601F0D8FA484601F063
:10950000D5FAA0680290C0B2033004EB800002A933
:10951000FFF79AFF20BB029BDAB204EB8202D1680C
:1095200003919A1C0133DBB204EB83030292D3F85C
:109530000CB001F00303012B20D0022B13D0834683
:10954000484601F0B6FA08B1029BA360594640466E
:1095500001F091FAA368626803F580739B1AABE788
:109560009DF80800D0E7BDF80E30C3F3891303332C
:109570004FEA1B4B02EB93030293E1E7BDF80C307B
:10958000C3F383134FEA1B4B1344F5E7AD0545F0D6
:1095900006019DE7203C0020064B074810B500223D
:1095A0001A7001F044FD044610B9044801F0A9FD09
:1095B000204610BD203C0020C82C07007811040074
:1095C00030B50A4C71B10A4A0A49121BD20800236D
:1095D0009A4201D1002030BD31F82350854202D09B
:1095E0000133F5E7034654F83300F4E7DC2C0700B9
:1095F000B42D0700B83B0020094B013903EBC00034
:10960000032909D8DFE801F0020A040602207047A6
:1096100000797047407970470020704704207047F8
:10962000DC2C07007047000037B5154B1B7804464B
:109630000BB918B90024204603B030BD25F08EFACE
:109640000130009001230F486A4601A901F067FD2F
:1096500005460028EED12146009A019825F070FABF
:10966000DDE900231344074803F8015C009901F089
:109670008BFD0099034801F0A0FD019CDBE700BFD2
:10968000203C002078110400034BD3E90130C31AB9
:1096900058425841704700BF203C00202DE9F0435C
:1096A00087B0FFF7F1FF002874D1744CC4F8180498
:1096B000BFF34F8FA0680290C0B2033004EB80006C
:1096C00002A9FFF7C1FE029B18B1D4F81824002AA2
:1096D0005CD0DAB29F1C013304EB8202DBB204EBF4
:1096E0008303D268DB68049302F00303022B039226
:1096F000029758D1BDF80E306148C3F38918464629
:10970000502E28BF502666F38F1306F10801ADF8DE
:109710000E3001F0A4FC0546002800F0998001F00D
:10972000CAFC002303A90822284601F0D6FCFB430B
:10973000DBB20133F9B20331B6EB830F4FEA830991
:1097400004EB81012CD908234A46A6EB09062846DA
:1097500001F0C3FCF6B24B4909F10803324608F1A7
:109760000308284607EB980701F0B7FC0297D4F8E6
:109770001834D4F81064002B55D0284601F09FFC13
:10978000FFF782FF80F00100C0B204E062689A42F5
:1097900004D8A260002007B0BDE8F083D8B28CE7FF
:1097A00008233246DBE7012B52D1BDF80C30344898
:1097B000C3F38311062928BF062161F389130231FF
:1097C00001F00F018900ADF80C3001F048FC0546AE
:1097D00000283DD001F06FFC0023082203A9284691
:1097E00001F07BFC0026BDF80C20C2F38312B3000D
:1097F000B24203F10803BAD902994A1CC9B2033133
:10980000029204EB81010422284601F066FC013635
:10981000E9E7F3685B7923B1336829461B68304672
:109820009847F3681E68002EF3D1284601F047FCE4
:109830000DF107008DF8076000F0B8FED4F8183479
:109840000BB9029BA3609DF8070000F0D3FE97E7D9
:10985000D4F8104454B90C4B0C480D49C01AC00838
:10986000000440F0020000F05DF889E7236820461C
:109870009B689847E3681C68ECE700BF203C002029
:10988000C82C07002C3C0020DC2C0700242D0700EE
:10989000641104002DE9F34704460E46924601A9DF
:1098A000012218469946FFF7EBFD1C4F10B3019DAE
:1098B0004FF00008AA1CC84508EB020125D1184842
:1098C000002101F09DF880F31000000440EA1440EC
:1098D000E4006B1C04F03804DBB2EDB244F0010488
:1098E00007EB8303033544EA881444EA8624D860EE
:1098F00047F825403B781BB1FFF7D0FE0028FBD18D
:10990000FFF790FE02B0BDE8F087C9B207EB810116
:109910005AF82830CB6008F10108CCE7203C002041
:109920003C40002000231A46FFF7B4BF07B50123CF
:10993000019201AAFFF7AEFF03B05DF804FB07B583
:10994000CDE9002302236A46FFF7A4FF03B05DF8C8
:1099500004FB1FB5CDE90123069B039301AA032352
:10996000FFF798FF05B05DF804FB1FB5CDE90023B4
:10997000069B0293079B03936A460423FFF78AFF23
:1099800005B05DF804FB7FB5CDE90123089B039387
:10999000099B04930A9B059301AA0523FFF77AFF0D
:1099A00007B05DF804FB00002DE9F7430446D01C26
:1099B0008846164601A900228008FFF761FD254D63
:1099C00080B3019FB81C0190C0B2C0F58073B6EBA4
:1099D000830F00F103004FEA830905EB800028D8CC
:1099E0003246414625F0ACF81B48002101F008F84A
:1099F00080F310007B1CDBB205EB8303220CFFB26B
:109A000042EA00420337DA60E30055F8272003F00A
:109A1000380343F0020343EA865302F47C121343F3
:109A200045F827302B787BB9FFF7FCFD03B0BDE884
:109A3000F0834A46414625F083F8A6EB090208EB7D
:109A4000090105F10C00CDE7FFF728FE0028FBD146
:109A5000EAE700BF203C00203C40002030B513491D
:109A6000D1F810440346002022464AB9DC68207130
:109A7000D1F8104484B9C1F81034DB681A600AE0E8
:109A8000D2681579854201D01268EEE701300A28C4
:109A9000EAD14FF0FF3030BDE468DA682468146022
:109AA000D1F81024D2681360F5E700BF203C0020F5
:109AB00038B5084B0125D3F810441D7004B938BDE2
:109AC000E3685D71236820465B689847E3681C681B
:109AD000F4E700BF203C002010B5037A052B0C46AC
:109AE0000FD0437A23B1084A0849204601F049F8CB
:109AF0000749204601F045F82046BDE8104001F036
:109B000035B8002AF8D0F3E7841104000C180500DA
:109B1000381A070073B5C38804460D4633B1144A9A
:109B200000921449144A284601F02BF8217A05299D
:109B30001CD0637A4BB1A088FFF75EFD0F4B104934
:109B400053F82020284601F01CF8227A0D4BA088FB
:109B500053F822600021FFF733FD0B4903463246DC
:109B6000284602B0BDE8704001F00BB802B070BDED
:109B700084110400911104008911040008120400EA
:109B80000C1805002C120400A91104002DE9F04363
:109B900085B01F460C9D002395F80C902B7306464C
:109BA0000C46904629463846FFF7B4FFB8F1060F39
:109BB00009D8DFE808F00412181F283340003146A6
:109BC000284600F0DEFF002229463846FFF784FFD2
:109BD00085F80C9005B0BDE8F08322683146284630
:109BE00000F0CFFFEFE7D4E900233146284600F02C
:109BF000C8FFE8E7A3680093D4E90023314628466C
:109C000000F0BFFFDFE7E3680193A3680093D4E9A6
:109C100000233146284600F0B4FFD4E723690293BD
:109C2000E3680193A3680093D4E9002331462846F2
:109C300000F0A7FFC7E76369039323690293E36812
:109C40000193A3680093D4E900233146284600F02D
:109C500098FFB8E708292DE9F84F80460E461746C9
:109C60001C463DD8002593F80C901D7319461046EC
:109C7000FFF750FFDFF890A0DFF890B0AE4231D987
:109C800018F805205946204600F07BFF0135082DC5
:109C9000F4D11A491A4DDFF878B0204600F071FF70
:109CA0004FF0000A564524D918F80A207E2A1ED8FB
:109CB000511CC9B21BF8011011F0970F08BF2E22DA
:109CC0001049204600F05DFF0AF1010ABAF1080FC1
:109CD000E8D1012221463846FFF7FEFE84F80C90B9
:109CE000BDE8F88F5146204600F04BFFCEE72E220C
:109CF000E6E72946204600F044FFE5E7B7110400F7
:109D0000B5110400B9110400B31104005C1B070075
:109D1000952A070010B5C307064A4FEA500048BF0E
:109D20000901145C4ABF0F23F023C9B22340194331
:109D3000115410BDA841002010B5094B1978094BEA
:109D40001B680022914201DC002005E013F832403C
:109D5000844202D103EBC20010BD0132F2E700BF22
:109D6000C4410020C841002070B504460D46FFF7ED
:109D7000E3FF30B1436823B129462046BDE8704077
:109D8000184770BD034B044819680022490800F0C9
:109D9000D3BA00BFC04100200836002010B5C0B2C1
:109DA000FFF7CAFF0446007802F0EAFA63785A1E09
:109DB00053425341834208D1044AD2E9003213434B
:109DC00003D1BDE81040FFF7DDBF10BDB841002052
:109DD00037B54308374AD35CC2074CBF1B0903F0B1
:109DE0000F0304460D46042B25D8DFE803F00326B5
:109DF000303D4100F9B10121FFF78CFF00230DF147
:109E000007008DF8073000F0D1FB0122A4F12003F8
:109E1000C4F12000284922FA00F002FA03F30343B8
:109E2000A240D1E9004014431843C1E900409DF825
:109E3000070000F0DFFB03B030BD003918BF01217F
:109E40004900204603B0BDE83040FFF763BF49B189
:109E50000321FFF75FFF0121204603B0BDE830403A
:109E6000FFF782BF0121ECE70029E4D10421E8E7F4
:109E700009B10321E5E7FFF74DFF29462046FFF72B
:109E800073FF0DF107008DF8075000F08FFB0122E2
:109E9000A4F12003C4F12000074922FA00F002FADD
:109EA00003F30343A240D1E9004024EA020420EA7C
:109EB0000300BAE7A8410020B84100202DE9F04195
:109EC000124E134F00243378A34208DC114AD2E922
:109ED0000032134318D0BDE8F041FFF753BF3D688F
:109EE00005EBC40815F8340002F04AFA98F801307E
:109EF0005A1E53425341181A4142414115F8340049
:109F0000FFF766FF0134DEE7BDE8F081C4410020C1
:109F1000C8410020B8410020092AF7B505460C4683
:109F200016463ED902F060F9E8B11F4B1F481D608C
:109F30001F4B204F1C70204B002110221E6024F06C
:109F400085FC1E4B00200021C3E90001013CE4B266
:109F50000326FF2C0DD11A4A1A48002103B0BDE890
:109F6000F04000F0D7B902F003F90028DDD003B0CB
:109F7000F0BD9DF8063015F834008DF8046005EB4F
:109F8000C40223F007038DF8063001A993788DF8F9
:109F900005303A4602F032F9013CE4B20028D8D04C
:109FA000E5E70720E3E700BFC8410020A841002003
:109FB000C44100209D9D0100C0410020B841002007
:109FC000BD9E01004012040070B5084D084E0024EB
:109FD0002B789C4201D3002070BD3368012113F817
:109FE000340002F087F90134F2E700BFC4410020D9
:109FF000C84100201FB50021039001AA44F20100CE
:10A00000CDE9011109F016F905B05DF804FB000077
:10A010004B1C30B5DB00044612F003009BB20DD19F
:10A02000074D2A601A44074B1A60074B1870074BFC
:10A030001870074B1C80074B198030BD0720FCE7C8
:10A04000D8410020D4410020D0410020D14100203F
:10A05000CE410020CC4100202DE9F347DFF8B48049
:10A06000B8F800308B4206460C4617464AD3002506
:10A070000DF107008DF8075000F098FA224B234AA3
:10A08000DFF894C01B78BCF800C010786045C1B2FE
:10A0900038BF0131DBB238BFCDB2AB429DF807000B
:10A0A00005D100F0A7FA042002B0BDE8F0871578CA
:10A0B0001178DFF86890CBB28C4586BF0133DBB2F4
:10A0C0000023EDB2137000F095FAD9F800304FEA92
:10A0D000C50A43F8357003EBC50286B17CB10C4B61
:10A0E000B8F800001B68224605FB0030314624F01A
:10A0F00027FDD9F8003053449C800020D4E700238A
:10A100009380FAE70920CFE7D1410020D041002019
:10A11000D4410020CE410020CC410020D841002075
:10A1200070B5104C104D22782B789A4200D170BD3A
:10A130000E480F4A2378126806880E4802EBC301C6
:10A14000006852F83320898803FB060090470A49CB
:10A1500022780988D3B2914286BF0133DBB2002353
:10A160002370E0E7D1410020D0410020CE41002003
:10A17000D8410020D4410020CC41002010B5D0E9C6
:10A180000242D1E90203A04293412CBF01200020EA
:10A1900010BD000008B50A4800F06DFB094AD2E97D
:10A1A0000031C018084BD3E9002341F1000190426F
:10A1B00071EB030303D210F1807041F1000108BD7F
:10A1C00028360020504200204842002037B5284B56
:10A1D0001D780446002D3FD000283DD0FFF7DAFF60
:10A1E000D4E90223904299413AD300230DF10700AC
:10A1F0008DF8073000F0DAF923692BB94FF0FF3200
:10A200004FF0FF33C4E902239DF8070000F0F2F994
:10A21000D4E90530984700230DF107008DF8073089
:10A2200000F0C4F923699DF807009BB1D4E902123C
:10A23000B2F1FF3F08BFB1F1FF3F0BD05B1842F115
:10A240000002C4E9023200F0D5F90A48214600F0C4
:10A25000DDFF02E000F0CEF90025284603B030BD56
:10A26000B3F1FF3F08BFB2F1FF3FF5D0EDE700BF0C
:10A27000584200205012040037B505460C460A48E3
:10A2800001A900F02CFB68B10570446001A90648E3
:10A2900000F04FFB10B9002003B030BD034800F0C0
:10A2A000EFFAF8E70420F7E7E04100202836002025
:10A2B00013B5114B11491868019008231048582212
:10A2C00000F0FAFA044698B90E4A0F4801A900F0C6
:10A2D000B3F9044660B90C48012100F0ADFA01233E
:10A2E0000A4A0948194600F009FA094B01221A7076
:10A2F000204602B010BD00BF66120400F0410020ED
:10A30000E0410020F5A3010028360020FFFF7F0078
:10A310005842002030B56AB103684FF0FF344FF067
:10A32000FF355A614A1E5142C3E902455141196144
:10A33000002030BD0720FCE7F7B5044600270DF1EB
:10A34000070016460D468DF8077000F02FF9D4E986
:10A350000223B3F1FF3F08BFB2F1FF3F15D1FFF772
:10A3600019FF281841F10001C4E902019DF8070016
:10A3700000F040F92369A66103B125612146002060
:10A3800003B0BDE8F040FFF777BF9DF8070000F08D
:10A3900031F9384603B0F0BD37B5044600250DF15C
:10A3A00007008DF8075000F001F9D4E90223B3F15A
:10A3B000FF3F08BFB2F1FF3F9DF807000ED04FF0FE
:10A3C000FF324FF0FF33C4E9022300F013F92146B6
:10A3D000012003B0BDE83040FFF74EBF00F00AF99E
:10A3E000284603B030BD0000014800F044BA00BF69
:10A3F000283600202DE9F743074600F026FA40B141
:10A40000624AD2E9003113F1807341F10001C2E9DF
:10A4100000310021384600F028FA38B15C4C23683E
:10A4200023B12068FFF7D2FE0023236001213846C4
:10A4300000F01BFA20B1FFF7ADFE564BC3E9000157
:10A440005548534C01A900F084FA4FF0FF384FF003
:10A45000FF39A0B9DFF844814D4C404600F0ECFED6
:10A46000002800F08980D0E90223B3F1FF3F08BF44
:10A47000B2F1FF3F35D1404600F0D8FEEDE703785A
:10A48000012B20D0022B08D1444D284600F0CEFEEF
:10A4900020BB434B01221A700CE05BB94168D1E943
:10A4A0000223B3F1FF3F08BFB2F1FF3F02D03B48A8
:10A4B00000F0ACFE01A9384800F076FA01A9364850
:10A4C00000F047FAC5E741682368994202D10023AA
:10A4D0002360EFE7314800F0B2FEEBE7C0E9028904
:10A4E000D3E7216891B12168D1E9020182428B4111
:10A4F0002CD22368D3E90223B3F1FF3F08BFB2F1A6
:10A50000FF3F03D02168404600F080FE404600F047
:10A510008DFED0E902590646FFF73CFE281A69EB8A
:10A520000109012879F1000915DBB0F5350F10D3C9
:10A53000FFF75AFF1B4A02441B484FF496030021C1
:10A5400000F000F978B9236893B1266003B0BDE844
:10A55000F0832A46F0E71448002100F07BF93046EA
:10A56000FFF734FE01E00D28F9D00023236074E7E3
:10A57000384600F0BBF8E8E7054B1B68002BE5D137
:10A58000384603B0BDE8F04300F0B4B850420020B4
:10A590005C42002048420020E041002050120400AC
:10A5A00058420020FFFFB4002836002070B5EFF3BA
:10A5B000108672B60C4A9468012384B993600B4BE1
:10A5C0000B4DD3F8801029401160C3F88050D3F8A8
:10A5D000841051604FF0FF32C3F88420234603708B
:10A5E00006B962B670BD00BF6042002000E100E025
:10A5F000FC06FFBD10B5084B9A685AB150B9EFF38D
:10A60000108172B6054A1C6814605C6854609860DA
:10A6100001B962B610BD00BF6042002000E100E059
:10A620000346405882B028B100225A505B5801932B
:10A63000019B012002B0704770B5244B4579244E30
:10A6400043F825200446234B234806EBC505C01AD2
:10A65000C30818042B7933B140F002001F49FFF7FB
:10A6600061F9082070BD23680A88C3F8082594F9A9
:10A6700004308A78002B4FEA4212ADBF03F16043E9
:10A6800003F00F03164903F56143B9BFD2B2CA54B0
:10A69000D2B283F8002394F90430002B08DB0122A6
:10A6A000590903F01F0302FA03F30E4A42F821305E
:10A6B000637906EBC3020121117140F003000A49DE
:10A6C00046F83340FFF72EF90020CBE77442002014
:10A6D0006C420020DC2C0700342D07006A120400B5
:10A6E00014ED00E000E100E08C1204000368012298
:10A6F0001A607047036801225A607047F7B5046812
:10A700004FF480358D40C4F808530468C4F84853AA
:10A7100001F15004A4000668A4B20027375134594F
:10A720000194019C046801F5A87122F07F4244F86D
:10A7300021200268C2F8445313B10368C3F80453DC
:10A7400003B0F0BD2DE9F34799464FF48038036814
:10A7500008FA01F8C3F848830368C3F8088322F0B5
:10A760007F4502680E46D2F8041502EB860206F118
:10A770005007D2F84035C2F84015BF000268BFB29A
:10A780004FF0000A42F807A05B1AD259009223F05A
:10A790007F43012B009A04460BD1264B4FF4806077
:10A7A00043F001039847236843F807A0DB5901935E
:10A7B000019B2368D3F80475C3F84483EB1B23F093
:10A7C0007F43012B06F5A876236819D1013543F89C
:10A7D0002650184B4FF4806043F0010398472368DC
:10A7E000D3F804359F4209D12368C3F84483236812
:10A7F0000020C3F8048302B0BDE8F0870D20FAE71B
:10A8000043F826502068D0F804156A1A013AC9F1B5
:10A81000FF1322F07F4203F57F439342EED3002AD9
:10A82000E2D1013540F826502368D3F80435994227
:10A83000D9E700BFA012040002680223C2F8443323
:10A8400011B10268C2F80433704700684FF4827196
:10A85000FFF7E6BE4FF4803303FA01F10368C3F853
:10A8600048130368C3F80813704750318900006823
:10A8700089B2FFF7D5BE0368D3F80405704700001E
:10A8800090F90430002B09DB5A09012103F01F0362
:10A89000994002F14003024A42F82310704700BF7A
:10A8A00000E100E0024B034A1B681068184700BF34
:10A8B000744200206C42002010B561B1B2FBF3F489
:10A8C00003FB1424A4B244B9C0E90014846082815B
:10A8D000C381204610BD0E20FCE70920FAE737B5FA
:10A8E00050E8013F9DB2C48925448489A54228BF10
:10A8F0002D1B0489A54202BFBFF32F8F002207E062
:10A90000C5EA030540E80154002CE9D14FF00102EB
:10A910008DF803200193019A0A609DF8031001F05D
:10A92000FF0321B1006810FA82F003B030BD184671
:10A93000FBE70A884B889A4209D150E8012FC2EA06
:10A94000024240E80123002BF7D10120704700208C
:10A95000704737B550E8023F1FFAA3F5C488A542F7
:10A9600002BFBFF32F8F00220DE0C48925448489E4
:10A97000A54228BF2D1BC3EA054540E80254002C20
:10A98000E8D14FF001028DF803200193019A0A608B
:10A990009DF8031001F0FF0321B1006800EB1240A5
:10A9A00003B030BD1846FBE70A884B889A4209D1AC
:10A9B00050E8022FC2EA224240E80223002BF7D1DE
:10A9C000012070470020704701F01F024B09012150
:10A9D000914000EB830000F02AB801F01F03012230
:10A9E0009A404B0900EB8300D14300F038B84B0983
:10A9F00001F01F0150F82300C84000F0010070472B
:10AA000010B5034653E8000F0A4643E8002494F0CB
:10AA1000000FF7D110BD10B5034653E8000F40EA10
:10AA2000010243E8002494F0000FF6D110BD10B5E8
:10AA3000034653E8002F42EA010043E8000494F083
:10AA4000000FF6D110BD10B5034653E8000F00EA21
:10AA5000010243E8002494F0000FF6D110BD10B5B8
:10AA6000034653E8002F02EA010043E8000494F093
:10AA7000000FF6D110BD10B5034653E8002F02EBCE
:10AA8000010043E8000494F0000FF6D110BD10B5AA
:10AA9000034653E8002FA2EB010043E8000494F0C2
:10AAA000000FF6D110BD0121FFF7B5BF0121FFF75F
:10AAB000BEBF0021FFF7C7BF0021FFF7D0BF10B511
:10AAC00090B1D0E9012301689B1ADBB20A60013B17
:10AAD000DBB2FF2B026802D10020107110BD11689B
:10AAE0004C1C14600B70F2E70E20F7E737B50446F4
:10AAF00000250DF107008DF80750FFF757FD22687C
:10AB0000616813688B4210D9591E1160216813F8CF
:10AB1000010C258AE368A2680C68121B0C79D2B27A
:10AB2000944238BF0A7105FB00359DF80700FFF716
:10AB300061FD284603B030BD37B5054600230DF151
:10AB400007000C468DF80730FFF730FD2A681368C0
:10AB5000591C1160EA68A41A2A8AB4FBF2F41C702A
:10AB60009DF80700FFF746FD03B030BD10B58268C1
:10AB700004462AB143690168006998470023A3602D
:10AB800010BD0EB403B5039921B104AB01AA019322
:10AB900000F076F802B05DF804EB03B070470A29C4
:10ABA00038B504460D4602D10D21FFF7F8FFA36822
:10ABB0002268591CA160D554D4E901329A4204D3C9
:10ABC0002046BDE83840FFF7D1BF38BD2DE9F84F2A
:10ABD0009946DDE90A431546824688460A4601271A
:10ABE000AA420FD24F4538BF4F4613F0010B01D197
:10ABF00064B900240126B9F1010F1CD909F1FF390C
:10AC00006E43F8E70137B2FBF5F2E9E79B0710D591
:10AC1000B9F1000F14BF20263026BC42EAD9013C0E
:10AC200031465046FFF7BBFF002CE2D0BC42F6D1C4
:10AC3000E0E72026F1E7B8FBF6F39D42E0D9DFF824
:10AC40003C90B8FBF6F3504619F8031006FB138846
:10AC5000FFF7A5FF3346AB42B6FBF5F6F1D2BBF1E9
:10AC6000000F00D034B9BDE8F88F20215046013CD8
:10AC7000FFF795FFBC42F8D8F5E700BFA612040025
:10AC80002DE9F74F064617468846002900F06C81EB
:10AC900018F8011B49B9337B002B00F06581304661
:10ACA00003B0BDE8F04FFFF761BF252940F0938066
:10ACB000002598F800102D29424608F1010806D019
:10ACC000302907D02B2908D145F00405F1E745F0DC
:10ACD0000105EEE745F00205EBE72A2943461AD1C4
:10ACE0003B681A1D3A601C68424613782E2B21D10E
:10ACF00001324FF0000A4FF00A0C104610F8011B09
:10AD0000A1F1300EBEF1090F16D80CFB0A11A1F10A
:10AD1000300A0246F1E7002413F8011CA1F13000CB
:10AD20000928E2D80A2202FB0411A1F130041A46D4
:10AD30000133F1E74FF0000A12F8011B01F0FB00AC
:10AD400068289046F8D0782909D86F290CD863294B
:10AD50003DD021D825293ED0582900F0B18098F85F
:10AD60000030002B94D196E770390829F7D801A25A
:10AD700052F821F03BAF01005FAD01005FAD010073
:10AD8000D1AE01005FAD0100AFAE01005FAD0100CB
:10AD90005FAD0100C1AE0100642901D06929DED197
:10ADA0003A68111D3960D2F800B08BEAEB72A2EB61
:10ADB000EB724FF001090A21092A10DCD14538BF96
:10ADC000D1468CB90024BBF1000F25DA4BE03B687B
:10ADD0001A1D3A6019783046FFF7E1FEBFE709F126
:10ADE0000109B2FBF1F2E7E7BBF1000F05F0020247
:10ADF00025DB680750D452B9E90740F1B18005F06E
:10AE00000302022A3FD1BAF1000F3CD10CE0BAF1A3
:10AE1000000F05D0EA0717D569072AD52B2125E0B1
:10AE200005F00302022A2ED1A1452CD2013C30218B
:10AE30003046FFF7B4FE2CB3A145F7D123E0013C27
:10AE400072B9EB070FD474B14C45BCD9013C202139
:10AE50003046FFF7A4FE002CB4D0A145F6D1B2E7EE
:10AE6000BAF1000FEDD1CBF1000B2D213046FFF7E9
:10AE700096FE05F00302022A05D1BAF1000F02D1B5
:10AE8000002CD1D10024CDE9004553460A22594671
:10AE90003046FFF79BFE62E7013C22B9E807BBD4CE
:10AEA000002CD1D1B8E7BAF1000FB5D0F6E7396878
:10AEB0000A1D3A60CDE9004553460A220968E7E7D2
:10AEC00039680A1D3A605346CDE900451022F5E77E
:10AED0003B681A1D3A6015F00105D3F8009024D1A3
:10AEE000B9F1000F03D0484623F038FE0546AC42C6
:10AEF0001DD809F1FF3919F8011F00293FF42FAFC0
:10AF00003046FFF74CFEF6E730460135FFF747FEC7
:10AF100019F805100029F7D1A542BFF420AF202170
:10AF20003046013CFFF73BFEF6E70025F0E7202125
:10AF30003046013CFFF733FED9E73B681A1D3A6003
:10AF4000302130461C68FFF72AFE78213046FFF793
:10AF500026FE00220823CDE900322146102297E781
:10AF60004C453FF673AF57E703B0BDE8F08F00BF25
:10AF700030B53AB11368DB430A4D0144884204D12D
:10AF8000D84330BD4FF0FF33F6E710F8012B5340A4
:10AF9000082213F0010418BF2C46013A84EA530337
:10AFA000F7D1EBE72083B8ED2DE9F84FB0F806A014
:10AFB0004579D2F800B09DF828900AFB05F5043DCC
:10AFC00088460BEB0301A94203F1040488BFA5EBFB
:10AFD000030BB4FBFAF607460AFB1644C2F800B0AE
:10AFE0004EB9AAEB04055D4528BF5D46BBF1000FD5
:10AFF00004D1BDE8F88F3F68013EF1E7043408EB67
:10B0000006003C442A46B9F1000F0DD02146ABEBB7
:10B01000050B23F095FDDA452E443F6855464FF069
:10B02000000428BF5D46E1E701462046EFE7FFF751
:10B0300046BDF8B546790146721E05460023934287
:10B040002D6803D30024A64202D8F8BD0133F6E7E9
:10B050000F682846FFF770FD01343946F3E72DE904
:10B06000F041CD1C078A0646FFF740FD043F3D44F2
:10B070000446B5FBF7F5D0B14FF48073EDB2C7804D
:10B080008380013D066080460027AF4210D23046E3
:10B09000FFF72CFD40B16379013363710137C8F8C4
:10B0A000000006608046F0E72046FFF7C2FF00245C
:10B0B0002046BDE8F08101210430FFF7DCBC10B56B
:10B0C000012104460430FFF7E2FCC0B220B920465B
:10B0D000BDE81040FFF7ADBF10BD1FB503920022C1
:10B0E000009203AAFFF760FF05B05DF804FB1FB5EF
:10B0F00003920122009203AAFFF756FF05B05DF804
:10B1000004FB826800239360826813618268536144
:10B110008268D36082685360826813607047F8B5B4
:10B1200004460F46806815461E4683B9A268D2E9D8
:10B1300003306268191A02F1010C61450DD1002338
:10B140002B6016B1A068FFF7B7FC0020F8BDFFF731
:10B15000AAFC0028EAD01120F8E703EA0201024025
:10B16000914236BF6044ACEB0100C01A2B688342A9
:10B1700094BF2B60286023680B443B60A268296859
:10B18000D3680B44D360E0E738B584684368256929
:10B19000A26801332B449B1A8B420CD30A44A26051
:10B1A00083689A68DA608068FFF783FCB0FA80F001
:10B1B0004009C00038BD0420FCE710B5826813695F
:10B1C0009468E41A8C420AD30B44136183681A69A9
:10B1D0005A6180680430FFF76FFC002010BD042026
:10B1E000FCE701600B6843604A68934208BF002394
:10B1F00043607047436843B1026891680B44436001
:10B200005268934204BF00234360704770B544689E
:10B2100006460D46206818B1B3682946984718B904
:10B2200023682B60256070BD2468F3E743681868C5
:10B2300008B102681A60704743681868704743682D
:10B24000186800B97047884203D102681A6001206B
:10B25000704703460068F4E710B50B4AA2F59473F3
:10B260009A4201D800200CE0D11A091103EBC10465
:10B2700053F83110814205D802D204F10803EFE7F8
:10B28000606810BD2246EBE7A417040008B5FFF77D
:10B29000E3FF024B002808BF184608BDA4170400AE
:10B2A0004FF08053D3F83001421C04BF4FF070437D
:10B2B00093F8E00F831F5842584170474FF0704396
:10B2C00093F8E02F062A09D1D3F8E83FC3F303131C
:10B2D000033B042B02D8024AD05C70470020704721
:10B2E000C617040008B5FFF7DBFF40B14FF08053ED
:10B2F0007E4AD3F82433C3F30423C2F84035FFF762
:10B30000DDFF10B17A4B7B4A5A67FFF7C9FF48B19E
:10B310004FF080534FF08042D3F84432C3F34233AE
:10B32000C2F83C35FFF7CAFF30B1734AD2F8FC309F
:10B3300023F08073C2F8FC30FFF7B2FF40B14FF04A
:10B3400080430022C3F80C21C3F81021C3F838252C
:10B35000FFF7B4FF20B14FF080430322C3F8A025CC
:10B36000FFF7ACFF60B1654B0522C3F81026012240
:10B37000C3F888260022C3F818263F22C3F81426F3
:10B380004FF08053D3F83021511C09BF4FF0704368
:10B39000D3F8343193F8E02FD3F8E83F08BFC3F374
:10B3A0000313062A4DD1033B042B03D8544AD35C24
:10B3B000002B46D04FF08052524BD2F80414C3F801
:10B3C0002015D2F80814C3F82415D2F80C14C3F8C9
:10B3D0002815D2F81014C3F82C15D2F81414C3F899
:10B3E0003015D2F81814C3F83415D2F81C14C3F869
:10B3F0004015D2F82014C3F84415D2F82414C3F829
:10B400004815D2F82814C3F84C15D2F82C14C3F8F8
:10B410005015D2F83014C3F85415D2F83414C3F8C8
:10B420006015D2F83814C3F86415D2F83C14C3F888
:10B430006815D2F84014C3F86C15D2F84424C3F848
:10B440007025FFF72DFF48B14FF080534FF0804239
:10B45000D3F8583203F04F03C2F8E43EFFF720FF61
:10B4600048B14FF08043D3F80024D20744BF6FF0B7
:10B470000102C3F800244FF08053D3F83021062A8C
:10B480000ED1D3F83431033B042B02D81E4AD35CCF
:10B4900033B11E4AD2F83C3743F48063C2F83C37DC
:10B4A000154AD2F8883043F47003C2F88830BFF3ED
:10B4B0004F8FBFF36F8F4FF08053D3F83021062AA0
:10B4C0000FD1D3F83431033B042B02D8104AD35C9C
:10B4D0003BB14FF01023D3F808224FF08043C3F85C
:10B4E00058250C4B0C4A1A6008BD00BF00300140C3
:10B4F00000C007400DF0ADBA00ED00E00050004084
:10B50000C117040000C00040BC1704000010004038
:10B51000B7170400303600200090D0034FF0A0434E
:10B52000D3F80405C043C00F70474FF0A0434FF05D
:10B530000042C3F80C2570474FF0A0434FF0004283
:10B54000C3F8082570474FF0A0434FF00042C3F8FE
:10B55000082570474FF0A0434FF00042C3F80C2578
:10B5600070474FF0A042D2F80435D94301F00041B2
:10B5700003F00043C2F80815C2F80C3570470528DF
:10B5800009D0062809D0072809D0142814BF4FF085
:10B59000FF300320704700207047012070470220D1
:10B5A00070470000014B185C704700BFCB170400C8
:10B5B000C20708B506D54FF0A0430322C3F87C2785
:10B5C000FFF7C1FF83070AD54FF0A0430C22C3F851
:10B5D0001427C3F81827C3F81C27C3F8502708BD41
:10B5E00042DF704743DF704738B5074C051E04F152
:10B5F000080318BF1C4623682BB11A6822605B68D9
:10B6000028469847F7E738BD8042002020B9054B0F
:10B6100001225A70FFF7E8BF012802D1014A907059
:10B62000F8E770477842002020B9034B01225A7096
:10B63000FFF7DABF704700BF7842002038B50E4CE4
:10B640002378B3B90D486360A3602361E36000F021
:10B65000C1FC054602F064FF08B900F0C7FC0123F5
:10B660002370074BD3F800340BB10123A370284695
:10B6700038BD8525F5E700BF784200200DB60100F2
:10B680000000014037B5184CA378054603F0FF02CF
:10B690009BB110B143680120984700230DF10700CA
:10B6A0008DF80730FEF782FFE3680133E3609DF811
:10B6B0000700FEF79FFF03B030BD0DF107008DF8C6
:10B6C0000720FEF773FF25B1226913463BB92A60B4
:10B6D0002561E368002BE7D100F09AFCE4E79D4286
:10B6E000F7D01B68F2E700BF7842002037B50D4C59
:10B6F00000230DF107008DF80730FEF757FFE368D0
:10B70000013BE360E36833B9074BD3F8005415B944
:10B7100000F0A6FCA5709DF80700FEF76BFF03B0D4
:10B7200030BD00BF7842002000000140012813B561
:10B730000CD0032820D038B9134B0122C3F8802045
:10B74000BFF34F8FBFF36F8F02B010BD0F4C0023BC
:10B750000DF107008DF80730FEF728FF23780BB9AD
:10B76000FFF76CFFE3689DF807000133E3600123F6
:10B77000A370FEF73FFFE7E700F038FC02B0BDE83A
:10B780001040FFF7B3BF00BF00E100E078420020A7
:10B7900037B51B4C6378054603F0FF029BB110B12F
:10B7A00043680020984700230DF107008DF807300B
:10B7B000FEF7FCFE6368013363609DF80700FEF747
:10B7C00019FF03B030BD0DF107008DF80720FEF71B
:10B7D000EDFE25B1A268134653B92A60A5606368DF
:10B7E000002BE7D102F09CFE30B1FFF7F9FEE1E754
:10B7F0009D42F4D01B68EFE700F043FCDAE700BF9E
:10B800007842002073B50F4C00230DF107008DF82E
:10B810000730FEF7CBFE6368013B6360666836B9AC
:10B8200002F07EFE054640B1FFF7DCFE66709DF833
:10B830000700FEF7DFFE02B070BD00F02FFC657060
:10B84000F5E700BF784200202DE9F34700240646C3
:10B850000F46904600F5A0754FF48039A2462B683C
:10B860008BB1D6F8043309FA04F21A420BD0C5F8AA
:10B8700000A02B680193A000019B00F5A07398B273
:10B88000D7E9003198470134444505F10405E6D174
:10B8900002B0BDE8F0870000F7B50679334D0C2300
:10B8A0007343EF1814463A7A002A5DD1EC504B6886
:10B8B0007B60944647790368D4B2A7424AD843F3E1
:10B8C0000733CA78002BAEBF03F1604303F00F03C8
:10B8D000274C4FEA4212A8BF03F56143D2B2B4BF6E
:10B8E000E25483F80023036843F30733002B08DB9B
:10B8F00001225C0903F01F0302FA03F31D4A42F818
:10B90000243004684B78D4F8042503F0030322F0B4
:10B9100003021343C4F8043504688B78D4F808256F
:10B9200003F0030322F003021343C4F80835006850
:10B930000B78D0F8102503F00F0322F00F02134309
:10B94000C0F810350C2303FB065501232B72002091
:10B9500003B0F0BDA40004F5A074013243F804C0A4
:10B960001B590193019BA5E70820F1E78C420020B9
:10B9700014ED00E000E100E0036801221A600279A2
:10B98000034B0C2101FB023302221A72704700BFE5
:10B990008C420020036801221A610179024B0C20BD
:10B9A00000FB01331A7270478C42002038B50368DF
:10B9B00043F30733002B04460DDB5A09012103F042
:10B9C0001F03994002F120030D4A42F82310BFF3F0
:10B9D0004F8FBFF36F8F23680025D3F80022C3F881
:10B9E000005223684FF0FF32C3F808232046FFF7C8
:10B9F000D1FF2279034B0C2101FB02331D7238BDAC
:10BA000000E100E08C42002003680122DA60704708
:10BA100073B54FF4803405688C408BB18B0003F50F
:10BA2000A0730026EE50EB580193019B0368C3F806
:10BA30000443036801F5A87143F8212002B070BDEA
:10BA4000C5F80843F5E7F0B4076840F20116D7F8E7
:10BA500000528E4025EA0605C7F800520468D4F863
:10BA600000522B43C4F800329DF81030F0BCFFF7B1
:10BA7000CFBF0000024903480422FFF7E5BE00BF24
:10BA80008C42002000900040024903480622FFF744
:10BA9000DBBE00BF9842002000A00140C02910B5C5
:10BAA00025D0B9B180290AD14378047882781B0265
:10BAB00043EA044313430F4A0330C2F898354378EE
:10BAC00002781B0243EA024382781343094A033097
:10BAD000C2F894350368074A1BBAC2F89035D2F809
:10BAE000A03523F0C0030B43C2F8A03510BD4021A0
:10BAF000E5E700BF00500040044B0D22C3F80424CA
:10BB000001229A60024AC3F80423704700500040A3
:10BB100082000800034B4FF0FF32C3F808230122D4
:10BB20005A6070470050004008B5FFF7F3FF084B1C
:10BB30002022C3F88020BFF34F8FBFF36F8F0548DB
:10BB4000C3F88021FFF732FF034B00221A7208BDB1
:10BB500000E100E034360020A4420020034BD3F87B
:10BB60003C0410F0030018BF012070470050004053
:10BB7000F0B5B0F5A07FA5B072D1FFF7EFFF044696
:10BB80003B48002C70D183680133072B836067D951
:10BB900004230093CDE90144364D0394FFF7FAFEE8
:10BBA000354B6C724FF48052C3F80825D3F8082542
:10BBB000D3F89005D3F8A01511F0C0011FFA82FC4C
:10BBC00050D08029D3F8944501BFD3F898358DF82B
:10BBD00012301A0C8DF8102009BF1A0A04AA8DF829
:10BBE00011200DF11302230C1370230A537094706B
:10BBF000D31C020E1A70020C1F4C5A70020AD87025
:10BC00009A700023D4F8A475D4F80463C4F8FC3FF8
:10BC1000D4F8FC3F0123C4F8FC3F04A8C4F808C5CD
:10BC2000FFF73CFFD4F8A43507F0600723F060036A
:10BC30003B43C4F8A4350323C4F80C35D4F8A0352D
:10BC400023F01F0343F00403C4F8A0354FF48F63BF
:10BC5000C4F80463C4F808336B680BB168469847AE
:10BC600025B0F0BD04ABC4E700238360F8E700BF54
:10BC700034360020A4420020005000400A2930B58C
:10BC80002ED84FF49263CB40DB0729D54FF080527A
:10BC90000429D2F85044D2F85434D2F8582404700D
:10BCA0004FEA14254FEA14448470DCB24570C47026
:10BCB00001D1002030BD1D0A05710A294FEA134544
:10BCC0004FEA13634571837105D1130AC271120CD7
:10BCD00003724272EDE7882CEBD19923C370E8E739
:10BCE0000920E7E72DE9FF41244D2C7A002C42D1B1
:10BCF00003C8234A85E803000323C2F80C35D2F8B1
:10BD0000A03523F01F0343F00403C2F8A0351D4BF8
:10BD100020224FF0C008C3F8802183F805831A6001
:10BD2000194F1A4B1A4A02A93846CDE90234FFF7D7
:10BD3000B3FD0446D8B93B68D3F8102501264FF46B
:10BD4000C861D2B2334621FA02F200960146384663
:10BD5000FFF779FE072102A8FFF790FF414604464E
:10BD600002A8FFF79BFE4FF480532E72EB60204633
:10BD700004B0BDE8F0810824F9E700BFA442002028
:10BD80000050004000E100E03436002004000006CE
:10BD900071BB01007FB5734BD3F80421EAB1D3F82E
:10BDA0000423910719D50022C3F80421BFF34F8F54
:10BDB0006D4C637A03F0FF067BB96C4D2846FFF7A4
:10BDC00023FE2846FFF7D8FD012363720223009368
:10BDD0006368AE600BB168469847624BD3F8182190
:10BDE000A2B3D3F80423520630D50021C3F81811AA
:10BDF000BFF34F8F402201910092D3F81025039298
:10BE0000D3F82425C2F30B02103AC2F3CC020292FB
:10BE1000D3F828217AB1D3F8042356050BD5D3F8EB
:10BE20000C2402F00D020192C3F82811BFF34F8FCA
:10BE30000D22C3F80C244C4B5B680BB16846984745
:10BE4000484B0022C3F80C21BFF34F8F454BD3F86A
:10BE50001021AAB1D3F80423D50611D50022C3F8C6
:10BE60001021BFF34F8FCDE90122039210220092DF
:10BE70001822C3F808233C4B5B680BB1684698470F
:10BE8000384BD3F84C215AB3D3F80423140327D5E5
:10BE90000022C3F84C21BFF34F8FC3F81821BFF322
:10BEA0004F8FC3F82821BFF34F8FC3F80C21BFF386
:10BEB0004F8FC3F81021BFF34F8F2B498889C3F8E8
:10BEC00008050D20C3F80C04C3F804044FF4002344
:10BED00000934B680392CDE901220BB16846984765
:10BEE000204BD3F81C21F2B1D3F8042310061AD545
:10BEF0000022D3F80414C3F81C21BFF34F8FCDE9FF
:10BF000001220392C9074FF08002009207D5012257
:10BF1000C3F80424144B5B680BB168469847114B77
:10BF20000D22C3F804240F4BD3F80C21BAB1D3F877
:10BF30000423120713D50022C3F80C21BFF34F8F3F
:10BF4000094A52685AB108210091D3F8101502919C
:10BF5000D3F81C35C3F3C80301936846904704B077
:10BF600070BD00BF00500040A442002034360020C5
:10BF7000014B1B68184700BFB44200200E4B98428B
:10BF800013B50C4602D0002002B010BD00230DF105
:10BF900007008DF80730FEF709FB084B9DF80700F6
:10BFA0001A791AB1FEF726FB1120EDE701221C6079
:10BFB0001A71FEF71FFBE6E700200040B4420020A4
:10BFC00000F18040002382B0036003680193019B6D
:10BFD00002B07047044B0246187918B91A60012262
:10BFE0009A80704785207047BC420020074B1A6832
:10BFF000D20704D4C02283F8002301221A604FF034
:10C0000080430122C3F81825704700BF00E100E01B
:10C0100038B54FF48270FFF7D3FF4FF08043022210
:10C02000C3F804230C4AD2F8FC0040F08073C2F835
:10C03000FC300A4B1C6844F0010119605D685968C6
:10C04000491BB1F50A5FFAD31C604FF08043C2F878
:10C05000FC0001229A6038BD00ED00E0001000E015
:10C060004FF0804208B50223C2F808334FF48270C3
:10C07000FFF7A6FF0123D360D2F81834DB03FBD40B
:10C0800008BD08B54FF48070FFF79AFF4FF080436A
:10C090000122C3F804231A6008BD00004FF080425B
:10C0A000012108B54FF48070C2F80813FFF788FF2C
:10C0B0005160D2F80C3403F00113B3F1011FF8D032
:10C0C000014B00225A7108BDBC42002010B54FF050
:10C0D0008041D1F8003163B14FF48070FFF770FFF9
:10C0E00001220D4BC1F80823587910B95A711B6809
:10C0F00098474FF08042D2F8043163B14FF4827018
:10C10000FFF75EFF0223C2F80833034BBDE810407F
:10C110001B680120184710BDBC42002000F1804080
:10C1200000F5C040002382B0036003680193019BC7
:10C1300002B07047800000F1A040D0F8003723F42F
:10C140004033C0F80037D0F8003743EA0143C0F865
:10C1500000377047054B4FF0FF32072843F8202087
:10C1600084BF1B1883F84820704700BFC4420020DA
:10C1700010B5194C94F858305BBB4FF0FF3204F106
:10C18000300122FA03F0C00748BFCA540133202B04
:10C19000F7D10021C8B20131FFF7DCFF0C29F9D13A
:10C1A000042200210D4822F051FB0D4BC02283F8E0
:10C1B000062340221A604FF4BE70FFF7AFFF094B11
:10C1C0004FF00042C3F80423012384F858300020C4
:10C1D00010BD0820FCE700BFC44200201843002027
:10C1E00000E100E000600040034B93F85800003885
:10C1F00018BF0120704700BFC4420020F0B53B4E7D
:10C20000331893F93030002B6DDA8F78C7F340077D
:10C21000002F15BF002308234FF0080C4FF00C0C23
:10C22000634501D10420F0BD56F8235001354FEA93
:10C23000830442D106EB000C5DB246F823208CF853
:10C24000305017B9334483F848008B785F0716D411
:10C25000DA0734D5830003F1A043D3F8002722F096
:10C260000202C3F80027224FC20800F0070C012386
:10C2700003FA0CF317F802C043EA0C03BB548B78A3
:10C280000A789B0724D504F1804303F5C0430002DC
:10C29000D3F8101521F4473121F44071C3F810157B
:10C2A0001204D3F8101500F4F85002F44032104391
:10C2B0000843C3F810050020B5E70133B0E74A781A
:10C2C00000F5E0734FF0A047920047F82320CAE73B
:10C2D000A5F1080346FA83F393F8501041EA82125D
:10C2E00083F85020E7E708209DE700BFC442002004
:10C2F0001843002038B5204C251895F93020072A1E
:10C3000018DD083A44FA82F292F850309B09032B68
:10C310000BD14FF0A043D3F81015C14001F001013B
:10C320000231BDE83840FFF705BF012B0CBF0221E9
:10C330000321F6E7D3B2072B1CD8930003F1804307
:10C3400003F5C043D3F8100540F00100C3F8100511
:10C3500002F1400040B2800080B2FFF7DFFE49B139
:10C3600095F9303054F8233023B101239340034A28
:10C37000C2F8043338BD00BFC44200200060004052
:10C380004FF0A043D3F8103523FA00F000F001007D
:10C39000704700002DE9F34700244F4D01944FF4FE
:10C3A0008072012102F1804303F5C0431B68012B19
:10C3B00007D1D5F804330B4203D090B2FFF7AEFE9D
:10C3C0000C430432B2F5907F4FEA4101EAD1424B6F
:10C3D000D3F87C31012BE2B229D14FF4BE70FFF7C4
:10C3E0009DFE4FF0A043D3F820150191C3F820150E
:10C3F0000AB344F00044394F00250126344210D0DE
:10C40000AB0003F1804303F5C043D3F81005D3F824
:10C41000101557F8253023B1C1F30141C0F30420B2
:10C4200098470135082D4FEA4606E7D101E0002A7A
:10C43000E1D1002C48DA294C4FF0A047284D4FF0AD
:10C440000008012615F9013F5A1C31D0C3F3C2017F
:10C4500008316944DAB211F8041C03F03F0903F013
:10C46000070306FA03F3194222D009F5E0734846A0
:10C4700057F82330C3F3014ABAF1020F0CBF03216E
:10C480000221FFF757FE06FA09F3C7F8203504EB3F
:10C49000090393F9303054F823304BB19109032943
:10C4A00004D0BAF1020F12D1012901D148469847B0
:10C4B00008F10108B8F1040FC4D1D7F82035019371
:10C4C000C7F82035002BB9D102B0BDE8F087BAF12A
:10C4D000030FEDD10229E8E700600040C4420020CC
:10C4E00013430020124BD3F8182182B0EAB1002286
:10C4F000C3F81821D3F818310193019B0D4BD97F54
:10C50000FF2907D0987F01228A404FF0A04148B10F
:10C51000C1F80C2500225A771A72D3E90021064887
:10C5200002B01047C1F80825F4E702B0704700BF19
:10C530000030004020430020284300202DE9F74F21
:10C5400007796B4E01934FF0240A0AFB07FA06EBBA
:10C550000A0B91469BF81C2005460C46002A40F029
:10C56000C380D0F8008063494046FFF707FD0028EC
:10C5700040F0BC8046F80A90019BCBF80430237B46
:10C580002178012B4FF0A0424FF0010303FA01F391
:10C5900094BFC2F80C35C2F8083523784FF0A0419B
:10C5A00003F5E073012241F823206378FF2B1FBFBE
:10C5B0009A40C1F80C2503F5E0724FF0030C18BF48
:10C5C00041F822C0A27808BF4FF0FF33FF2A1FBFF7
:10C5D00002F5E07C4FF0A0414FF0040E41F82CE052
:10C5E0004FF0240101FB076194F802C081F820C0DC
:10C5F00094F803C081F81FC008BF4FF0FF32BCF1B0
:10C60000FF0F19D094F804E0012101FA0CF14FF06A
:10C61000A04CBEF1000F5ED0CCF80C15E17801F50E
:10C62000E0714FF0030E4CF821E0242101FB07617B
:10C6300094F804C081F81EC02178C8F80815C8F81D
:10C640000C35C8F81025A368C8F82435637B227B15
:10C65000003B18BF0123022A40D0032A41D0012AFF
:10C6600001D143F00203C8F85435A379C8F8C035A6
:10C670000723C8F80035B9F1000F22D02B68627982
:10C6800043F30733002BAEBF03F1604303F00F0306
:10C6900019494FEA4212A8BF03F56143D2B2B4BFB1
:10C6A000CA5483F800232B6843F30733002B08DBBD
:10C6B0000122590903F01F0302FA03F30F4A42F85B
:10C6C0002130242303FB076600237377012333778C
:10C6D00003B0BDE8F08FCCF808159FE743F00403E2
:10C6E000C1E743F00603BEE70820F1E71120EFE7BA
:10C6F00020430020E5C4010014ED00E000E100E06B
:10C700002DE9F3410779474E24237B431546F21860
:10C710000C46517F8646002940F08180F35823B1B2
:10C7200015F0140F04BF0123537794E80F004FF066
:10C73000240C0CFB076C0CF10C0888E80F009CF82B
:10C740001F20FF2A08D09CF81E10012393404FF0B1
:10C75000A042D1B1C2F808352168DEF8003021B11D
:10C7600001F06042B2F1005F06D1A26882B102F02E
:10C770006042B2F1005F0BD0242303FB0763002269
:10C780005A77102002B0BDE8F081C2F80C35E3E71B
:10C790006268C3F84415C3F84825D4E90212C3F807
:10C7A0003415C3F838250022C3F81821D3F818210E
:10C7B0000192019A15F0010218BF0122C3F8502519
:10C7C00015F0020218BF0122C3F840252A075CBFFA
:10C7D00001221A6124227A43B258B2B9D3F818213F
:10C7E000002AFBD0242303FB0766F27FFF2A07D031
:10C7F000B17F012393404FF0A04219B1C2F80C352C
:10C800000020BFE7C2F80835FAE715F0040F4FF033
:10C81000400214BFC3F80823C3F80423F0E7112033
:10C82000B0E700BF2043002013B5084CD4F8003116
:10C830004BB1074B1B6898470023C4F80031D4F86C
:10C8400000310193019B02B010BD00BF0000014008
:10C85000444300202DE9F3470025154EDFF85480AE
:10C860000746A9460DF107008DF807900124FDF752
:10C870009DFEEBB29C4034429DF8070008D1FDF7C5
:10C88000B9FEA64305F10105ECD14FF0040A0AE018
:10C89000D8F8003014EA030AF1D11C433D70C8F8FF
:10C8A0000040FDF7A7FE504602B0BDE8F08700BF8C
:10C8B000FFFF01004843002037B501258540C5F33F
:10C8C0001003ABB10B4B0024C3F808550DF1070062
:10C8D0008DF80740FDF76AFE074A9DF807001368C8
:10C8E00023EA05031360FDF785FE204603B030BD43
:10C8F0000720FBE700F001404843002010B5A1B13C
:10C900009AB101238340C3F3100484B10A4C246814
:10C9100023420ED0C00000F1804000F5F830C0F88E
:10C920001015C0F81425002010BD0E20FCE70720CC
:10C93000FAE70820F8E700BF48430020012303FA84
:10C9400000F0B0F5003F08D2064B1B68184206D035
:10C95000054BC3F8040500207047072070470820E6
:10C96000704700BF4843002000F001400220FEF75E
:10C97000F8BD00002DE9F04780460D46FEF7FFFDAB
:10C980000328044610D8012D10D0022D30D05DB9F7
:10C990001A48FDF701FD1A4B04EB440213449D783D
:10C9A000184B1B5DAB4219D0BDE8F087144E00EB6D
:10C9B0004003F218F55C5378470053B1DFF84C9010
:10C9C0000E484A464FF48041FDF7B6FC08B989F895
:10C9D000008027443E440B4BB2781A55002DE3D01B
:10C9E000094B1B68002BDFD02846BDE8F0471847ED
:10C9F000034B00EB400423445D78EFE74036002012
:10CA0000514300204C43002060430020504300204D
:10CA100000780221FFF7AEBF034B1B7813B1002053
:10CA2000FEF78ABDFEF78FBD64430020F8B5884D40
:10CA30002B7804461BB100232B70FFF7EDFF172C5A
:10CA400000F2A280DFE814F01800230023004E005B
:10CA50006E007F0090009A00A200A700A200A7002D
:10CA6000AF00B400B400B400B400B400DE00E300D2
:10CA7000EB00F300FE00FE00FFF7CEFF7548FDF768
:10CA80008BFC754B002205461A702846F8BD002025
:10CA9000FEF744FDF0B10020FEF74EFD022C0CBF66
:10CAA0004FF4E1654FF47A656B4B1C7000244FF432
:10CAB00000464FF47A7021464FF4FA620023E5FBFA
:10CAC000060124F0A3F922460146BDE8F84061487A
:10CAD000FDF732BCFEF729FD022C0CBFC8254FF430
:10CAE000C875E1E70020FEF719FDB8B10020FEF798
:10CAF00023FD4FF44874584B032200254FF40046A1
:10CB00004FF47A7029461A70E4FB06014FF4FA627A
:10CB1000002324F07BF92A460146D6E7FEF705FDFF
:10CB2000C824E8E70020FEF7F9FC38B10020FEF742
:10CB300003FD4FF47A64484B0422DEE7FEF7F5FC70
:10CB40004FF4C874F7E70020FEF7E8FC48B1002076
:10CB5000FEF7F2FC404B05221A7040F6CD41002250
:10CB6000B3E7FEF7E2FCF5E70020FEF7FAFC3A4BEC
:10CB700006221A70002240F26661A6E70020FEF746
:10CB8000D4FC354B07221A7000257EE7012028705F
:10CB9000FEF7E7FCEEE701202870FEF7E2FC00223A
:10CBA0004FF4005191E7FEF7D5FC2B4B0C22EAE73E
:10CBB0002A482B4EFDF7F0FBD4F1110405461CD09A
:10CBC000D8B9012C13D0C8235C4329464FF4004741
:10CBD0004FF47A704FF4FA620023C4FB070124F08B
:10CBE00015F92A4601461D48FDF7A6FB0546022019
:10CBF000FEF79BFC0123337047E70220FEF79CFC05
:10CC00000023F8E7FFF708FF134B1222BBE7FFF7FB
:10CC100003FF0020FEF789FC0F4B1322B3E7FFF759
:10CC2000FBFE0120FEF781FC0B4B1422ABE7FFF764
:10CC3000F3FE0020FEF779FC0120FEF776FC064BA0
:10CC40001522A0E7FEF786FC034B1C709CE700BF93
:10CC50006C430020803600206D43002060360020A9
:10CC600064430020044B1B68DB0703D5034B187893
:10CC7000FFF7DCBE704700BF684300206D43002013
:10CC800010B500290CBF00240324FEF78BFC8000A4
:10CC900000F1A040D0F8003723F44033C0F800374B
:10CCA000D0F8003743EA0443C0F80037002010BD35
:10CCB000044B1B6813F0010301D0FFF7B7BE184601
:10CCC000704700BF6843002038B5234B1860234BE2
:10CCD0001960830700F0010411D41CB30120FEF792
:10CCE00067FC1F4A1F480021FDF714FB0446C8B922
:10CCF000BDE838401C4A1D480121FDF70BBB1C4B09
:10CD00001C480E221A700F22DA7010229A7111221A
:10CD10005A72042140F23332FDF7FEF8054618B18D
:10CD2000ACB92C46204638BDFDF74EF90546002823
:10CD3000F6D10146104A1148FDF7ECFA0546002CE1
:10CD4000EFD00120FEF734FC002DEAD1C9E7012025
:10CD5000FEF72EFCE5E700BF68430020604300209B
:10CD600065CC0100281804006DC9010024180400D6
:10CD7000514300200018040011CA010020180400CB
:10CD8000032811D8012A0AD101290FD100F10E027E
:10CD9000D2B20D4B00EB40001A540020704701291D
:10CDA000F7D0022904D049B1072070470022F8E7E4
:10CDB000054B00EB400003445A70EEE7024B00EBDA
:10CDC000400003449A70E8E751430020032802D84A
:10CDD0000121FFF755BF06207047000007B500236B
:10CDE0000DF107008DF80730FDF7E0FB074BD3F896
:10CDF0001024520704BF01229A609DF80700FDF736
:10CE0000F9FB002003B05DF804FB00BF00500040B8
:10CE1000044A136843F001031360034B01221A70A4
:10CE200000207047704300206E4300202DE9F04140
:10CE3000284B1B780246002B40D0002841D0002907
:10CE40003FD0D1F800C00CF1FF331F2B3CD8224853
:10CE5000224CDFF88C8025460023074650F8046BEF
:10CE600055F804EBB44503D858F82360764506D14D
:10CE7000BEF1010F03D80133072BEFD1002318486F
:10CE8000184D50F8230055F8235000BB034654F8C2
:10CE9000046B1EB90133072BF9D13346124E3468A7
:10CEA00014F0010F13D057F82370104B24F0010435
:10CEB0002B44136034600F60BDE8F08148F2081025
:10CEC000FAE748F20E10F7E748F20710F4E748F2E5
:10CED0000410F1E76E430020801804004818040095
:10CEE000641804002C1804007043002074430020D0
:10CEF00013B50024CDE9004001A96846FFF796FF6D
:10CF000000B10094009802B010BD0000074B1B78E0
:10CF100053B130B97047064A136843F001031360F8
:10CF20007047044B9842F6D0704700BF6E43002014
:10CF300070430020744300200369C26893429CBF81
:10CF400081685B18013B981A70472DE9F041D0E9E0
:10CF500002840546A8EB04064068964220440F462A
:10CF6000144404D921F0ECFDEC60BDE8F0813246B8
:10CF7000A4EB080421F0E4FD68682246B919F1E742
:10CF80002DE9F843C5680646894617464FF0000864
:10CF90003369B46870689D4228BF1B19641BBC428A
:10CFA00003F1FF3328BF3C465B1B9C4228BF1C4655
:10CFB00049462844224621F0C3FDB3682544AB42CC
:10CFC00008BF00253F1BA044A144F560E0D14046C6
:10CFD000BDE8F88310B5114C114AA2610223C4E9DF
:10CFE0000433104BE361A2644FF400730E4A0F49FF
:10CFF0002362E26400231022E01DA3626362E36205
:10D00000A3656365E365226521F0BAFD0849204602
:10D0100021F0B6FD2023A37110BD00BFA445002060
:10D02000A5180400A443002094430020AE18040077
:10D03000B2180400F8B5144B182700FB07751D44FF
:10D0400007FB00330E46DB6A012B14460AD0022B85
:10D0500014D023B92846FFF76FFF844208D9002473
:10D060002046F8BD2846FFF767FF844228BF0446E4
:10D07000224631462846FFF768FFF1E72846BDE81B
:10D08000F840FFF77DBF00BFA4450020FFF7A2BF17
:10D090006DDF704779DF70477DDF704764DF704771
:10D0A0002DE9F04F85B000260E9CBDF83CB0B4F8D9
:10D0B00000A00191074690461D46B1463A884A4570
:10D0C00005DC002E38D1002005B0BDE8F08F7A686D
:10D0D00052F82900039000220DF10B0103A8FFF77D
:10D0E000DDFF0028F0D19DF80B20424521D1228898
:10D0F00008EB02011EB159450CDD0C20E4E70231BA
:10D100008B45FADB013292B2019B2280AB5422881C
:10D110000132228022880DF10B012A4403A8FFF777
:10D12000BDFF0028D0D121889DF80B200A44228021
:10D13000012609F10109C1E72388013BA3EB0A039A
:10D140009BB2FF2BD9D805F80A30BCE72DE9F34193
:10D15000089FBDF824801546CDE9007802220446D8
:10D160001E46FFF79DFF50B9334610222946204640
:10D17000CDE9087802B0BDE8F041FFF791BF02B0F9
:10D18000BDE8F0812DE9F04F00231788138090F857
:10D190002D3085B080460D4614465BB3082F40F213
:10D1A000B98102A8FFF774FF0646002840F0E68028
:10D1B00023880822EA54238801339BB21B22238050
:10D1C000EA542088013080B2208006220DF1090146
:10D1D000284421F0B5FC23889DF8082006339BB233
:10D1E000012A88BF0122238094BFEE54EA54238889
:10D1F0000133238098F802300BB323880433BB42F9
:10D2000000F2888102A8FFF745FF0646002840F09B
:10D21000B58023880322EA54238801339BB2192264
:10D220002380EA542388BDF8082001339BB2E91813
:10D230002380EA54120A4A7023880233238098F824
:10D240000320A2B12388D91CB94200F263810221D4
:10D25000E954238801339BB201212380E9542388B8
:10D260000B449BB22380EA5423880B442380D8F8D4
:10D270000430B3B193F900202388D91CB94200F2DD
:10D2800049810221E954238801339BB20A2123807A
:10D29000E954238801339BB22380EA542388013365
:10D2A0002380B8F80830002B5CD1B8F810305BB19F
:10D2B000CDE900472B460722032108F11000FFF7B4
:10D2C00045FF0646002859D1B8F818305BB1CDE9C2
:10D2D00000472B461522142108F11800FFF736FFEE
:10D2E000064600284AD1D8F82020002A4AD1D8F88A
:10D2F000246066B3B3882188981C8A1C0244BA4211
:10D3000000F20881FE2800F2058103336B54238864
:10D3100001339BB2FF222380EA54238801339BB25E
:10D3200023803288EA54E918120A4A7020880230B1
:10D3300080B22080B28852B1B168002900F0EC8040
:10D34000284421F0FDFB2388B2881344238098F8F9
:10D350002C30002B59D198F80030002B40F09480ED
:10D3600000260BE0CDE900472B460622022108F1FA
:10D370000800FFF7EBFE0646002896D0304605B0C1
:10D38000BDE8F08F2688B31DBB4200F2C380118830
:10D39000052940F2C1806FF4486C01EB0C039BB28D
:10D3A0004FF27D3C634540F2B7805388052B40F235
:10D3B000B3806FF44860181880B2604540F2AC80CA
:10D3C0004FF6FF70814202D0994200F2A5800523FA
:10D3D000AB55238801339BB212212380E954238863
:10D3E00001339BB223801188E954E818090A41707F
:10D3F000238802339BB223805288EA54E918120A28
:10D400004A7023880233238071E7D8F82830002B34
:10D4100000F082804FF000094FF00C0A4FF0160B1D
:10D4200098F82C305FFA89F2934294D9D8F82810F2
:10D430000AFB02F28E18B388981CFE286AD820884E
:10D4400003332B54238801339BB2238005F803B0A8
:10D45000238801339BB223808A5AEA54E918120ABE
:10D460004A702088023080B22080B2884AB1B16808
:10D47000002951D0284421F063FB2388B28813444B
:10D48000238009F10109CBE7B8F80020012A43D035
:10D490002288901CB8423DD8012B05D198F8013064
:10D4A000023313449F4235D3023FBF1ABFB202A9D1
:10D4B0002844ADF80870FFF7EFFD064600287FF41A
:10D4C0005DAF98F80010BDF80830022914D1BB42B6
:10D4D0001ED9ADF808700821BDF80830FE2B19D808
:10D4E00022880133AB542288013292B22280A9549F
:10D4F00022881344238033E798F80120934201D80F
:10D50000BB4205D90129E4D1974228BF1746E0E77D
:10D510000921E1E70C2631E707262FE730B5C8B12E
:10D52000F2B10024651C8D4206DA1588A54212D896
:10D5300005196D789D420ED1A14211D9005D48B107
:10D54000013880B230B10234A3B210FA84F4A1429F
:10D5500006DB138030BD055D01352C44A4B2E1E744
:10D560000020F7E713B513460022ADF806200DF1B1
:10D5700006020446FFF7D2FF10B1BDF806002044B2
:10D5800002B010BD72DF704773DF704738B50122FB
:10D5900004460D46B0F8D810D0F8D400FFF7E2FFEB
:10D5A00000B1057004F13C0204F1D40104F154000F
:10D5B000BDE83840FFF7E6BF80F830107047F8B597
:10D5C00004460F46002968D0002866D091F87A30CA
:10D5D0001BB191F89830002B61D1D7F8A030042B03
:10D5E0005DD0D7F89C30042B59D04FF0000C84F854
:10D5F00002C007F178060FCE251D0FC50FCE0FC54F
:10D6000096E8070085E8070084F830C0D7F8A43012
:10D610006363D7F8A830A3634FF6FF7504F1D40312
:10D62000C4F8E430A4F8E8500722614604F1EA00A7
:10D6300021F00CF923780BB984F85450224604F1F8
:10D6400055011F25C4F8D410384622F8D85FFFF7DB
:10D6500099FD08BB224604F19301C4F8DC1007F1E0
:10D660003C0022F8E05FFFF78DFDA8B9A369A4F89C
:10D6700048304FF480730125A4F85030636920646A
:10D68000014684F83C50636404F13C0204F1540008
:10D69000FFF778FF00B92570F8BD0E20FCE70720E2
:10D6A000FAE7F8B5077804460D46002F00F0F4803D
:10D6B00000F1EA06817007220021304621F0C6F809
:10D6C000E38813B1A378012B04D0E3794BB1A3789D
:10D6D000022B06D1636BA3B1012284F8F12008204C
:10D6E0009847334604F1F00113F8012F12B98B4229
:10D6F000FAD11746013D032D22D8DFE805F0050DCC
:10D70000101284F8F130ECE7A3792BB194F82430AF
:10D7100013B927B1012311E0E37903B16FB9237A7B
:10D720004BB9637A53B10423A370636B53B90023DD
:10D7300084F8F33014E00323F6E70223A370F6E73E
:10D740000023FBE76279002AF1D094F8F220002A46
:10D75000EDD184F8F420012284F8F32007209847C3
:10D7600004F13C0518220021284621F06FF8E36AF5
:10D77000591E0122022928BF134684F8513094F81B
:10D78000243084F83C2033B1A36A591E022928BFF3
:10D79000134684F85230A378002284F85020042BDA
:10D7A00011D8DFE803F0610318284600012384F84C
:10D7B0003130C4E91062022384F83C308023C4F87D
:10D7C000E420A4F84830A378002B50D1636B002BE1
:10D7D0005ED100205BE0022384F83130032384F81B
:10D7E0003C302369A4F848300023C4F8E430E368EF
:10D7F00026646364E7E762696264A269A4F848206A
:10D8000062797AB194F8F22062B994F8F4204AB1BE
:10D81000022384F8503004212046FFF7B7FE002889
:10D82000D1D1052384F8313004F1D403C4F8E430B5
:10D83000C9E7E2696264226AA4F848206279002A92
:10D84000F0D094F8F220002AECD194F8F420002AC9
:10D85000E8D0022384F8503004212046FFF796FEDA
:10D860000028B0D10623DDE784F83120ABE7D4F8F7
:10D87000E4102A4604F15400FFF784FE38B994F806
:10D88000301094F85400FFF77FFE00289ED0F8BDBA
:10D8900094F8310098479CE70820F8E710B5038812
:10D8A000112B0C460AD0262B1FD0102B05D1C27B82
:10D8B0008388012A01D1A1F8E83010BD002381F846
:10D8C000F2308288B1F8E8309A42F6D10B79002B19
:10D8D000F3D101212046FFF7E4FE0028EDD0A36B31
:10D8E000002BEAD0BDE810401847037A013B012B1A
:10D8F000E3D8897805230131B1FBF3F303EB83030C
:10D90000C91AC9B2E6E775DF704776DF70477ADF7C
:10D9100070477BDF70470000034B1A8882420CBFC0
:10D9200018460020704700BF40460020024B9B690C
:10D9300003B11847704700BF2446002073B585B275
:10D940002846FFF7E9FF044668B1174E027A337B99
:10D950009A4211D200F10A012846FFF7D4FF20B9FC
:10D96000237A0133237202B070BD1128FBD002B0BC
:10D97000BDE87040FFF7DABF00230372337C43B188
:10D980003B212846FFF7C1FF30F0080301D0FFF725
:10D99000CDFF7369002BE6D000228DF80420ADF88E
:10D9A000065001A89847DEE72446002013B50B4631
:10D9B000497A02460E4871B9D0E90141187A002827
:10D9C00008BF21465868FCF7B7FC78B102B0BDE843
:10D9D0001040FFF7ABBF00211972436933B1012139
:10D9E0008DF80410ADF8062001A8984702B010BDCC
:10D9F000244600204B8802889A4212D842889A42D4
:10DA00000FD380888B8840F2F311884294BF021AAA
:10DA1000421A9A4205D80844984234BF0020012097
:10DA2000704700207047000070B50388122B014634
:10DA300059D004D8102B1ED0112B44D070BD502BC0
:10DA4000FCD12F4BC288DB899A42F7D1038A022B83
:10DA5000F4D186883046FFF75FFF05460028EDD0F9
:10DA600001F1120000F04AF938BB6868FCF794FC39
:10DA70000028E3D00AE0C37B8688012BDED14FF675
:10DA8000FF70FFF749FF054620B90420BDE870404C
:10DA9000FFF74CBF1B4A0680002303721368C0F8CF
:10DAA0000A305368C0F80E3010310A30FFF7A2FF79
:10DAB000134B6872DB89002BC0D129463046BDE884
:10DAC0007040FFF773BF8088FFF726FF04460028E9
:10DAD000B4D04068FCF760FC08B1FFF727FF4FF6B1
:10DAE000FF732380AAE786883046FFF715FF0546B7
:10DAF0000028A3D008310A30FFF77CFF6872DCE70A
:10DB0000244600201C460020F8B5064648B30546CA
:10DB10000FCD154F3C460FC495E8070084E8070079
:10DB20003068124C3C60B0B1FFF7F1FE90B932683A
:10DB300013682360536863600D480E4A4FF6FF7305
:10DB400003800D4B40F8043F0021FCF7E3FB002865
:10DB500018BF0320F8BD2046FFF7DBFE0028EBD0FE
:10DB6000F8E70E20F6E700BF244600201C46002000
:10DB7000404600203DD90100584600200AB1FCF77C
:10DB800023BFFCF72ABF73B50191019C06466CB117
:10DB900000252C46294601A8FCF729FF18B106EB01
:10DBA000440301349D800135142DF3D13046346097
:10DBB00002B070BD2DE9F04303888488103B8DB01E
:10DBC0000A2B1ED8DFE803F006361D1D1D1D1D1D86
:10DBD0001D5B3D002E4FBB68DB43009379686846B0
:10DBE000FCF73DFF009901A8FFF7CDFF0DF10608F6
:10DBF0000026019B9E4207D3132C12D90420FCF768
:10DC0000F9F90DB0BDE8F08338F8029F0025013521
:10DC1000494607EB8500FCF7E0FE1E2DF7D10136E3
:10DC2000E7E721461B48FCF7CFFE1B482146FCF7DF
:10DC3000CBFEE6E7174821460DB0BDE8F043FCF700
:10DC4000CCBE027A15483F2A4FEA1215214694BFEE
:10DC500000220122FFF792FF022D94BF0022012231
:10DC60000F482146FFF78AFF012D0E4894BF00227E
:10DC7000012221460DB0BDE8F043FFF77FBF037AD4
:10DC8000002BBED1427A0548C2F3C0022146F1E71B
:10DC900078460020804600207C46002090460020E8
:10DCA0008C460020884600201328014602D80248EE
:10DCB000FCF79DBE002070477C46002010B504464E
:10DCC000FFF7F2FF002814BF2046142010BDAADF82
:10DCD0007047002301380B70042806D8DFE800F0F5
:10DCE0000306080A0C0011230B7070472123FBE781
:10DCF0003123F9E71223F7E72223F5E7008800F044
:10DD000001007047F0B58B7891B0012B0C4638BFFD
:10DD100001238DF80E3005460B88ADF80C3000213C
:10DD200016466846032220F091FD607C6946FFF7A5
:10DD3000D0FFA07C0DF10101FFF7CBFF227D237BFB
:10DD4000013202F0030243EA4203E27B43EAC203E8
:10DD5000227C43EA02139DF8022003F01F0322F005
:10DD60001F02134300211C2209A88DF8023020F065
:10DD70006DFD637B13F0300F15D002AF032200213D
:10DD8000384620F063FDE07C0DF10901FFF7A1FFAB
:10DD900011238DF808309DF80A300E97012262F3A6
:10DDA00042038DF80A30637B8DF824301422A37B64
:10DDB0008DF82530002104A820F048FD03AB049322
:10DDC000A388ADF81C30A368CDF814D01BB1E2884D
:10DDD000ADF818200893A36973B301AF03220021A3
:10DDE000384620F033FDA2691388ADF82C305388F3
:10DDF000ADF82E3053680D97107B0A933946FFF724
:10DE000068FF0DF10501507BFFF763FF937B117AEB
:10DE1000013303F0030341EA4301937A41EAC3016A
:10DE2000D37A41EA03119DF8063001F01F0123F077
:10DE30001F0319438DF80610E36903B10C933346B1
:10DE400004AA09A92846FFF742FF11B0F0BDA5DFDB
:10DE50007047B5DF704758B14FF0FA1303601B23CA
:10DE60000371FA23C3801723C160836000207047C9
:10DE70000E20704730B1A1F11703E32B04D80180C5
:10DE8000002070470E207047072070472DE9FF41A2
:10DE900087880C46002F40F0A28003883A2B67D079
:10DEA0001FD8102B59D0112B5DD0A37A002B00F076
:10DEB0009680E1880020FFF7CAFF034600287CD146
:10DEC0004FF480726281474D474A4849AD1AED08C8
:10DED0002D04E28845F0040004B0BDE8F041FBF7F2
:10DEE0002EBD552BE1D1404B3E4DC6884049ED1A21
:10DEF000ED082D0445F0040833463A464046FBF74A
:10DF00001EFDE3883B49A772172E324638BF172201
:10DF10009A4228BF1A46228140460097FBF719FD16
:10DF2000E1883846FFF795FF38B1FDF7AFF9324980
:10DF3000024645F00100FBF7F9FCE37A002BB4D16F
:10DF4000E368002BB1D040F6772202922289ADF827
:10DF50000C2002A920469847A7E7C37B012BA4D138
:10DF60000B88CB80A1E7FA23CB8017238B609CE73B
:10DF70004289CB881B489A4228BF1A461A4BC01ABE
:10DF8000172A4FEAD00038BF172200040A813B4607
:10DF90001A4940F00400FBF7D2FCE36853B1E27A7F
:10DFA00042B140F6772202922289ADF80C2002A9F4
:10DFB000204698470023638177E711280FD0FDF7AB
:10DFC00065F90949074B5B1ADB081B040C4902463B
:10DFD00043F0010004B0BDE8F041FBF7A7BC04B07A
:10DFE000BDE8F081642D0700DC2C07009C190400BB
:10DFF000F41804002E1904006D190400B918040067
:10E00000E1190400B0DF704766DF704710B50021EA
:10E0100004464088FFF7F8FF034608B9237210BD95
:10E02000112801D10123F9E76368BDE810401847C2
:10E0300060B159B10378DE2B0AD00B684360DE2350
:10E0400003704FF6FF734380002070470E20704727
:10E050000820704728B10378DE2B04D141800020CE
:10E0600070470E20704708207047F0B5054685B010
:10E070000C46002940D000283ED00B78DE2B3BD147
:10E0800082884B889A4204D10B7A13B10846FFF775
:10E09000BDFF2B88112B3BD0512B0FD0012B2BD147
:10E0A0002B7AAA88012B27D16188914224D120465E
:10E0B000237205B0BDE8F040FFF7A8BFAF886388C2
:10E0C000BB4219D1AE79022E16D1AB7B03F0FD0213
:10E0D000042A13D110220021684620F0B7FB4FF428
:10E0E000C0738DF80060ADF8043069463846FFF71C
:10E0F00089FF08B16368984705B0F0BD052BFBD1D7
:10E1000010220021684620F0A1FB8DF80060ECE7AA
:10E110006388AA889A4204BF4FF6FF736380EBE7D7
:10E1200070B50546164608460AB90E2070BD002394
:10E130001360002DF9D02B68002BF6D0EB8813F07C
:10E1400003040ED1FFF7BAFDC0B214280BD02B790F
:10E1500083420AD9EA882B6800FB023333602046E9
:10E16000E4E70720E2E70520E0E70420DEE7A8DF98
:10E170007047ADDF7047AEDF704762DF704770B544
:10E1800005468AB00C46002962D0002860D003887A
:10E19000502B37D0572B70D0102B59D18188606904
:10E1A000002601AA0196FFF7BBFF082231460DEBBE
:10E1B000020020F04BFB02232189A888CDF80CD067
:10E1C00002AA0293FFF7D5FF002841D1A369002BD3
:10E1D0003ED00398FFF792FD002839D0019B0BB188
:10E1E00001221A701822002104A820F02FFB02231C
:10E1F0008DF81030AB88ADF81830019B059407936B
:10E20000A36923E08188606902AAFFF789FF1822C9
:10E21000002104A820F01AFBAB882189ADF8183042
:10E22000EB88029A05949942079216D12E8A022E03
:10E2300013D16AB105F11200FFF760FD029B48B1EE
:10E2400001221A70A3698DF810600BB104A89847D9
:10E250000AB070BD18700326F4E7A2899A42F7D17C
:10E26000A369002BF4D000228DF8102005F11202D2
:10E2700008922A8AADF82420E8E78188606902AA1A
:10E28000FFF74EFF01460028E2D1029B1B78002BCE
:10E29000DED0A369002BDBD0182204A820F0D6FA28
:10E2A00001238DF81030AB88ADF818300594029B2F
:10E2B000A5E70000F0B53A4B8FB002AD04460A4620
:10E2C00003F1100C2F46186859682E4603C6083310
:10E2D00063453546F7D1002C5FD0002A5DD0136826
:10E2E000A36121463846FFF748FF002853D1224654
:10E2F000012512F8023B8DF8063001A92846ADF839
:10E300000450FFF734FF002845D10146202206A81B
:10E3100020F09CFA22460223ADF8183012F80C3B8C
:10E320008DF81A30BDF824301E4E6088079623F40D
:10E330004F6323F00F0343F440632B4306A9ADF86A
:10E3400024308DF829508DF82A50FFF7DBFC10BBE4
:10E350000146202206A820F079FA22460323ADF8D0
:10E36000183012F8043B8DF81A30BDF8243060885C
:10E37000079623F4875323F01F0343F480532B4362
:10E38000ADF8243006A940F201138DF82950ADF8FC
:10E390002A30FFF7B7FC0FB0F0BD0E20FBE700BF3F
:10E3A000271A0400F7000100F0B50F4687B01646A3
:10E3B0001C46054618B3406901AA1946FFF7B0FE8E
:10E3C000D8B94FF6FF739C421BD0019BCBB11B7891
:10E3D000CBB13388F72B18D80146102202A820F0C1
:10E3E00035FAAB88ADF8083002A901232046CDE903
:10E3F00004678DF80A30FFF7BEFE07B0F0BD0E20AF
:10E40000FBE70520F9E70820F7E70720F5E710DF2D
:10E410007047000013B5044609496846FCF7E1FE61
:10E42000019808B902B010BDD0E9003120469847E4
:10E4300018B16846FCF7DEFEF2E71120F2E700BFF4
:10E44000501A040013B5044607496846FCF7C9FE94
:10E45000019B0BB902B010BD2046D3E900219047C3
:10E460006846FCF7C7FEF3E7441A04000B4991F82D
:10E470001623EC2352091341DB0706D5084B9A6893
:10E480003AB94FF480030B60704742F20200FBF789
:10E49000B1BD1A6842F480021A60704700E100E0E2
:10E4A00060420020F7B5194F3C786CBB184E01252F
:10E4B00020463570FFF7AEFF112821D02046FFF728
:10E4C000C1FF144B8DF80340186801900DF1030053
:10E4D000FCF76CF8104901A8FFF799FF0446B0FA61
:10E4E00080F0400938709DF80300FCF783F844B9C8
:10E4F0000A4B34701C70FFF7B9FF2846FFF7A2FFE4
:10E500000024204603B0F0BD0824FAE7F6460020B8
:10E51000F4460020641A040035320200F54600205B
:10E52000014B1878704700BFF646002007B5084930
:10E530006846FCF756FE019B13B903B05DF804FB77
:10E54000D3E9002090476846FCF754FEF3E700BF8C
:10E55000381A0400FFF7EABF60DF704769DF7047D1
:10E5600061DF704730B5134DADF5037D4FF4FE7498
:10E570000DF1020103A8ADF80240FFF7F1FF70B9F9
:10E58000294601A8FCF72DFE029B002BF0D003A822
:10E59000D3E90021904701A8FCF72CFEF4E70528F9
:10E5A00005D00DF5037DBDE83040FBF723BD0DF52B
:10E5B000037D30BDD81C0400024B1B780BB1FFF764
:10E5C000D1BF7047F746002030B5054685B00C46F0
:10E5D000002900F0B2805A4B0B600C22002101A8E8
:10E5E00020F034F901238DF8063022688DF80450AC
:10E5F000062301A92020ADF80830FFF7AFFF60B176
:10E60000FCF744FE4F49504B5B1ADB081B040246E3
:10E610004E4943F00100FBF789F90C22002101A8C3
:10E6200020F014F9012322688DF8053001A940205B
:10E63000FFF794FF60B1FCF729FE4249424B5B1A99
:10E64000DB081B040246424943F00100FBF76EF968
:10E650000C22002101A820F0F9F8FA2322688DF895
:10E66000045001A92320ADF80630FFF777FF60B111
:10E67000FCF70CFE3349344B5B1ADB081B040246E3
:10E68000344943F00100FBF751F90C22002101A8A5
:10E6900020F0DCF80A2322688DF8043001A901205B
:10E6A000FFF75CFF60B1FCF7F1FD2649264B5B1AD2
:10E6B000DB081B040246284943F00100FBF736F94A
:10E6C0000C22002101A820F0C1F84FF4B0632268A9
:10E6D000019301A9A120FFF741FF60B1FCF7D6FD2E
:10E6E0001849194B5B1ADB081B0402461B4943F00F
:10E6F0000100FBF71BF90C22002101A820F0A6F86D
:10E700009DF80430226843F0010301A9A0208DF890
:10E710000430FFF723FF10B9002005B030BDFCF72F
:10E72000B5FD0849084B5B1ADB081B0402460C497F
:10E7300043F00100FBF7FAF8EEE70E20EDE700BF2B
:10E7400000360020DC2C0700742D0700681A040036
:10E75000AE1A0400FA1A0400411B04008D1B0400C9
:10E76000DE1B0400F8B506460768FFF7F5FE3368C0
:10E77000BB4205461DD9194B194C1A49E41AE40845
:10E78000240444F002042046FBF7CCF83368164911
:10E790003A462046FBF7D3F84FF080533268D3F85F
:10E7A0000C3112499B0203F100539A1A2046FBF7E1
:10E7B000BDF825B90E4B01221A702846F8BD28462F
:10E7C000FCF764FD0549064B5B1ADB081B04024697
:10E7D000084943F00100FBF7A9F8EEE7DC2C07003D
:10E7E000742D0700311C0400601C0400911C0400FF
:10E7F000F7460020BB1C04004BDF70471FB50E4CD2
:10E8000001A8FFF7F9FF70B9214602A8FCF7E9FC5F
:10E81000039B002BF4D00198D3E90021904702A874
:10E82000FCF7E8FCF4E7052804D004B0BDE810408C
:10E83000FBF7E0BB04B010BDF01C040000F1804009
:10E8400000F5E040002382B0036003680193019B60
:10E8500002B07047F0B5544B544CD3F8043194F8DF
:10E860002E2085B0002B3BD04FF48270FFF7E6FFDF
:10E870002AB394F82F3013BB4B4AD2F80031002B47
:10E8800032D04FF48070FFF7D9FF638B94F82D00DE
:10E89000834250D921891B1A9BB289B26383CB1A58
:10E8A000616801EB4301C2F82C16C2F830064FF440
:10E8B0008270FFF7C3FF3C4B01225A6014E063688B
:10E8C00002932389ADF80C30E36800218DF8041021
:10E8D00033BB2374236801A89847002384F82F30A2
:10E8E00094F82E30002BC7D12F4BD3F810315BB1E9
:10E8F0004FF48870FFF7A2FF0023237402238DF8E2
:10E90000043001A823689847274BD3F814310BB380
:10E910004FF48A70FFF792FF0023237405B0F0BD17
:10E92000208B608363602081E160002AD2D11E4B7E
:10E9300001221A60CEE7BAD1E168012084F82F00E5
:10E9400031B100206083C2F82C16C2F83036AEE731
:10E950006183ACE766694FF000470125002EDDD0EA
:10E96000B6FA86F227FA02F34632920026EA030646
:10E9700002F1804303F5E0431B68002BEED0104604
:10E98000A2F58C72FFF75AFFD30882F00402C2F39B
:10E9900080028DF808308DF8045023688DF8092026
:10E9A00001A89847DAE700BF00700040F846002051
:10E9B00038B5204A92F82C300446002B37D111602C
:10E9C0001D490078C1F8F0056078C1F8F405E078D9
:10E9D000137482F82D30536182F82F3001256FF0C7
:10E9E000004382F82E0082F82C504FF48270C1F858
:10E9F0000833FFF723FF4FF48070FFF71FFF4FF43A
:10EA00008A70FFF71BFFA3780C485B01DBB280F82C
:10EA10000733802303600223C1F8043392F82E30B9
:10EA20000BB1C1F80453C1F80055002038BD0820CF
:10EA3000FCE700BFF84600200070004000E100E065
:10EA400010B52C4B1A7C02F0FF04002A4FD10A7932
:10EA5000012A9CBF284AC2F8004500F10C0403EBD0
:10EA60004402127922B993F82D20013283F82D2027
:10EA700003EB4403CA791A710A7A5A714B788A787F
:10EA80001B01120202F4E06203F0300313430A7820
:10EA900002F003021343CA78120302F480521343B4
:10EAA0000A79120402F4E02213434A79120502F4AF
:10EAB000801213438A79120602F0807213430E4AC1
:10EAC00002EB0014000100F18040C4F8183500F595
:10EAD000E040CB790C7AC0F81445C0F810350B79BA
